{
  "_format": "hh-sol-artifact-1",
  "contractName": "LiquidityPool",
  "sourceName": "contracts/LiquidityPool.sol",
  "abi": [
    {
      "inputs": [
        {
          "internalType": "contract IERC20",
          "name": "_peachToken",
          "type": "address"
        },
        {
          "internalType": "contract IERC20",
          "name": "_mangoToken",
          "type": "address"
        },
        {
          "internalType": "contract IERC20",
          "name": "_coconutToken",
          "type": "address"
        }
      ],
      "stateMutability": "nonpayable",
      "type": "constructor"
    },
    {
      "inputs": [
        {
          "internalType": "address",
          "name": "owner",
          "type": "address"
        }
      ],
      "name": "OwnableInvalidOwner",
      "type": "error"
    },
    {
      "inputs": [
        {
          "internalType": "address",
          "name": "account",
          "type": "address"
        }
      ],
      "name": "OwnableUnauthorizedAccount",
      "type": "error"
    },
    {
      "anonymous": false,
      "inputs": [
        {
          "indexed": true,
          "internalType": "address",
          "name": "provider",
          "type": "address"
        },
        {
          "indexed": false,
          "internalType": "uint256",
          "name": "peachAmount",
          "type": "uint256"
        },
        {
          "indexed": false,
          "internalType": "uint256",
          "name": "mangoAmount",
          "type": "uint256"
        }
      ],
      "name": "LiquidityAdded",
      "type": "event"
    },
    {
      "anonymous": false,
      "inputs": [
        {
          "indexed": true,
          "internalType": "address",
          "name": "previousOwner",
          "type": "address"
        },
        {
          "indexed": true,
          "internalType": "address",
          "name": "newOwner",
          "type": "address"
        }
      ],
      "name": "OwnershipTransferred",
      "type": "event"
    },
    {
      "anonymous": false,
      "inputs": [
        {
          "indexed": true,
          "internalType": "address",
          "name": "staker",
          "type": "address"
        },
        {
          "indexed": false,
          "internalType": "uint256",
          "name": "amount",
          "type": "uint256"
        }
      ],
      "name": "Staked",
      "type": "event"
    },
    {
      "anonymous": false,
      "inputs": [
        {
          "indexed": true,
          "internalType": "address",
          "name": "swapper",
          "type": "address"
        },
        {
          "indexed": true,
          "internalType": "address",
          "name": "fromToken",
          "type": "address"
        },
        {
          "indexed": true,
          "internalType": "address",
          "name": "toToken",
          "type": "address"
        },
        {
          "indexed": false,
          "internalType": "uint256",
          "name": "amount",
          "type": "uint256"
        }
      ],
      "name": "Swapped",
      "type": "event"
    },
    {
      "anonymous": false,
      "inputs": [
        {
          "indexed": true,
          "internalType": "address",
          "name": "staker",
          "type": "address"
        },
        {
          "indexed": false,
          "internalType": "uint256",
          "name": "amount",
          "type": "uint256"
        },
        {
          "indexed": false,
          "internalType": "uint256",
          "name": "reward",
          "type": "uint256"
        }
      ],
      "name": "Unstaked",
      "type": "event"
    },
    {
      "inputs": [
        {
          "internalType": "uint256",
          "name": "_peachAmount",
          "type": "uint256"
        },
        {
          "internalType": "uint256",
          "name": "_mangoAmount",
          "type": "uint256"
        }
      ],
      "name": "addLiquidity",
      "outputs": [],
      "stateMutability": "nonpayable",
      "type": "function"
    },
    {
      "inputs": [],
      "name": "coconutToken",
      "outputs": [
        {
          "internalType": "contract IERC20",
          "name": "",
          "type": "address"
        }
      ],
      "stateMutability": "view",
      "type": "function"
    },
    {
      "inputs": [],
      "name": "mangoToken",
      "outputs": [
        {
          "internalType": "contract IERC20",
          "name": "",
          "type": "address"
        }
      ],
      "stateMutability": "view",
      "type": "function"
    },
    {
      "inputs": [],
      "name": "owner",
      "outputs": [
        {
          "internalType": "address",
          "name": "",
          "type": "address"
        }
      ],
      "stateMutability": "view",
      "type": "function"
    },
    {
      "inputs": [],
      "name": "peachToken",
      "outputs": [
        {
          "internalType": "contract IERC20",
          "name": "",
          "type": "address"
        }
      ],
      "stateMutability": "view",
      "type": "function"
    },
    {
      "inputs": [],
      "name": "renounceOwnership",
      "outputs": [],
      "stateMutability": "nonpayable",
      "type": "function"
    },
    {
      "inputs": [],
      "name": "rewardRate",
      "outputs": [
        {
          "internalType": "uint256",
          "name": "",
          "type": "uint256"
        }
      ],
      "stateMutability": "view",
      "type": "function"
    },
    {
      "inputs": [
        {
          "internalType": "uint256",
          "name": "_amount",
          "type": "uint256"
        }
      ],
      "name": "stake",
      "outputs": [],
      "stateMutability": "nonpayable",
      "type": "function"
    },
    {
      "inputs": [
        {
          "internalType": "address",
          "name": "",
          "type": "address"
        }
      ],
      "name": "stakedAmount",
      "outputs": [
        {
          "internalType": "uint256",
          "name": "",
          "type": "uint256"
        }
      ],
      "stateMutability": "view",
      "type": "function"
    },
    {
      "inputs": [
        {
          "internalType": "address",
          "name": "",
          "type": "address"
        }
      ],
      "name": "stakingTime",
      "outputs": [
        {
          "internalType": "uint256",
          "name": "",
          "type": "uint256"
        }
      ],
      "stateMutability": "view",
      "type": "function"
    },
    {
      "inputs": [
        {
          "internalType": "uint256",
          "name": "_mangoAmount",
          "type": "uint256"
        }
      ],
      "name": "swapMangoForPeach",
      "outputs": [],
      "stateMutability": "nonpayable",
      "type": "function"
    },
    {
      "inputs": [
        {
          "internalType": "uint256",
          "name": "_peachAmount",
          "type": "uint256"
        }
      ],
      "name": "swapPeachForMango",
      "outputs": [],
      "stateMutability": "nonpayable",
      "type": "function"
    },
    {
      "inputs": [],
      "name": "totalLiquidityMango",
      "outputs": [
        {
          "internalType": "uint256",
          "name": "",
          "type": "uint256"
        }
      ],
      "stateMutability": "view",
      "type": "function"
    },
    {
      "inputs": [],
      "name": "totalLiquidityPeach",
      "outputs": [
        {
          "internalType": "uint256",
          "name": "",
          "type": "uint256"
        }
      ],
      "stateMutability": "view",
      "type": "function"
    },
    {
      "inputs": [
        {
          "internalType": "address",
          "name": "newOwner",
          "type": "address"
        }
      ],
      "name": "transferOwnership",
      "outputs": [],
      "stateMutability": "nonpayable",
      "type": "function"
    },
    {
      "inputs": [],
      "name": "unstake",
      "outputs": [],
      "stateMutability": "nonpayable",
      "type": "function"
    }
  ],
  "bytecode": "0x6080604052600160085534801561001557600080fd5b50604051610df1380380610df183398101604081905261003491610112565b338061005a57604051631e4fbdf760e01b81526000600482015260240160405180910390fd5b610063816100a6565b50600180546001600160a01b039485166001600160a01b031991821617909155600280549385169382169390931790925560038054919093169116179055610155565b600080546001600160a01b038381166001600160a01b0319831681178455604051919092169283917f8be0079c531659141344cd1fd0a4f28419497f9722a3daafe3b4186f6b6457e09190a35050565b80516001600160a01b038116811461010d57600080fd5b919050565b60008060006060848603121561012757600080fd5b610130846100f6565b925061013e602085016100f6565b915061014c604085016100f6565b90509250925092565b610c8d806101646000396000f3fe608060405234801561001057600080fd5b50600436106101005760003560e01c80638da5cb5b11610097578063c681e14911610066578063c681e149146101f7578063f2fde38b1461020a578063f99318551461021d578063ffd535291461023d57600080fd5b80638da5cb5b146101ad5780639cd441da146101be578063a694fc3a146101d1578063b1890d53146101e457600080fd5b8063583d42fd116100d3578063583d42fd14610169578063715018a61461018957806378915209146101915780637b0a47ee146101a457600080fd5b80631220fb331461010557806326792288146101355780632def66201461014a5780632f5cda0714610152575b600080fd5b600254610118906001600160a01b031681565b6040516001600160a01b0390911681526020015b60405180910390f35b610148610143366004610b2b565b610246565b005b610148610430565b61015b60055481565b60405190815260200161012c565b61015b610177366004610b44565b60076020526000908152604090205481565b6101486105f4565b600154610118906001600160a01b031681565b61015b60085481565b6000546001600160a01b0316610118565b6101486101cc366004610b74565b610608565b6101486101df366004610b2b565b610767565b6101486101f2366004610b2b565b610893565b600354610118906001600160a01b031681565b610148610218366004610b44565b610a70565b61015b61022b366004610b44565b60066020526000908152604090205481565b61015b60045481565b600060045411801561025a57506000600554115b6102a45760405162461bcd60e51b8152602060048201526016602482015275496e73756666696369656e74206c697175696469747960501b60448201526064015b60405180910390fd5b6000600554600454836102b79190610bac565b6102c19190610bc9565b6002546040516323b872dd60e01b81529192506001600160a01b0316906323b872dd906102f690339030908790600401610beb565b6020604051808303816000875af1158015610315573d6000803e3d6000fd5b505050506040513d601f19601f820116820180604052508101906103399190610c0f565b5060015460405163a9059cbb60e01b8152336004820152602481018390526001600160a01b039091169063a9059cbb906044016020604051808303816000875af115801561038b573d6000803e3d6000fd5b505050506040513d601f19601f820116820180604052508101906103af9190610c0f565b5080600460008282546103c29190610c31565b9250508190555081600560008282546103db9190610c44565b90915550506001546002546040518481526001600160a01b03928316929091169033907f5a417e3ceaff68360f7300df6686a9d417ae12328724de7bc2fd6c012a2ffa85906020015b60405180910390a45050565b33600090815260066020526040902054806104805760405162461bcd60e51b815260206004820152601060248201526f139bc81cdd185ad95908185b5bdd5b9d60821b604482015260640161029b565b3360009081526007602052604081205461049a9042610c31565b90506000600854826104ac9190610bac565b60015460405163a9059cbb60e01b8152336004820152602481018690529192506001600160a01b03169063a9059cbb906044016020604051808303816000875af11580156104fe573d6000803e3d6000fd5b505050506040513d601f19601f820116820180604052508101906105229190610c0f565b5060035460405163a9059cbb60e01b8152336004820152602481018390526001600160a01b039091169063a9059cbb906044016020604051808303816000875af1158015610574573d6000803e3d6000fd5b505050506040513d601f19601f820116820180604052508101906105989190610c0f565b50336000818152600660209081526040808320839055600782528083209290925581518681529081018490527f7fc4727e062e336010f2c282598ef5f14facb3de68cf8195c2f23e1454b2b74e910160405180910390a2505050565b6105fc610aae565b6106066000610adb565b565b6001546040516323b872dd60e01b81526001600160a01b03909116906323b872dd9061063c90339030908790600401610beb565b6020604051808303816000875af115801561065b573d6000803e3d6000fd5b505050506040513d601f19601f8201168201806040525081019061067f9190610c0f565b506002546040516323b872dd60e01b81526001600160a01b03909116906323b872dd906106b490339030908690600401610beb565b6020604051808303816000875af11580156106d3573d6000803e3d6000fd5b505050506040513d601f19601f820116820180604052508101906106f79190610c0f565b50816004600082825461070a9190610c44565b9250508190555080600560008282546107239190610c44565b9091555050604080518381526020810183905233917fac1d76749e5447b7b16f5ab61447e1bd502f3bb4807af3b28e620d1700a6ee45910160405180910390a25050565b600081116107a85760405162461bcd60e51b815260206004820152600e60248201526d043616e6e6f74207374616b6520360941b604482015260640161029b565b6001546040516323b872dd60e01b81526001600160a01b03909116906323b872dd906107dc90339030908690600401610beb565b6020604051808303816000875af11580156107fb573d6000803e3d6000fd5b505050506040513d601f19601f8201168201806040525081019061081f9190610c0f565b50336000908152600660205260408120805483929061083f908490610c44565b90915550503360008181526007602052604090819020429055517f9e71bc8eea02a63969f509818f2dafb9254532904319f9dbda79b67bd34a5f3d906108889084815260200190565b60405180910390a250565b60006004541180156108a757506000600554115b6108ec5760405162461bcd60e51b8152602060048201526016602482015275496e73756666696369656e74206c697175696469747960501b604482015260640161029b565b6000600454600554836108ff9190610bac565b6109099190610bc9565b6001546040516323b872dd60e01b81529192506001600160a01b0316906323b872dd9061093e90339030908790600401610beb565b6020604051808303816000875af115801561095d573d6000803e3d6000fd5b505050506040513d601f19601f820116820180604052508101906109819190610c0f565b5060025460405163a9059cbb60e01b8152336004820152602481018390526001600160a01b039091169063a9059cbb906044016020604051808303816000875af11580156109d3573d6000803e3d6000fd5b505050506040513d601f19601f820116820180604052508101906109f79190610c0f565b508160046000828254610a0a9190610c44565b925050819055508060056000828254610a239190610c31565b90915550506002546001546040518481526001600160a01b03928316929091169033907f5a417e3ceaff68360f7300df6686a9d417ae12328724de7bc2fd6c012a2ffa8590602001610424565b610a78610aae565b6001600160a01b038116610aa257604051631e4fbdf760e01b81526000600482015260240161029b565b610aab81610adb565b50565b6000546001600160a01b031633146106065760405163118cdaa760e01b815233600482015260240161029b565b600080546001600160a01b038381166001600160a01b0319831681178455604051919092169283917f8be0079c531659141344cd1fd0a4f28419497f9722a3daafe3b4186f6b6457e09190a35050565b600060208284031215610b3d57600080fd5b5035919050565b600060208284031215610b5657600080fd5b81356001600160a01b0381168114610b6d57600080fd5b9392505050565b60008060408385031215610b8757600080fd5b50508035926020909101359150565b634e487b7160e01b600052601160045260246000fd5b8082028115828204841417610bc357610bc3610b96565b92915050565b600082610be657634e487b7160e01b600052601260045260246000fd5b500490565b6001600160a01b039384168152919092166020820152604081019190915260600190565b600060208284031215610c2157600080fd5b81518015158114610b6d57600080fd5b81810381811115610bc357610bc3610b96565b80820180821115610bc357610bc3610b9656fea264697066735822122018a9232f5bbaaa745c971a99ca16ed0bc5b431f99407779c1b00044b7756157064736f6c63430008140033",
  "linkReferences": {},
  "deployedLinkReferences": {}
}