{"contracts/Counter.sol":{"Counter":{"abi":[{"inputs":[],"name":"increment","outputs":[],"stateMutability":"nonpayable","type":"function"},{"inputs":[],"name":"retrieve","outputs":[{"internalType":"uint256","name":"","type":"uint256"}],"stateMutability":"view","type":"function"}],"evm":{"bytecode":{"linkReferences":{},"object":"60806040526000805534801561001457600080fd5b5060c1806100236000396000f3fe6080604052348015600f57600080fd5b506004361060325760003560e01c80632e64cec1146037578063d09de08a14604c575b600080fd5b60005460405190815260200160405180910390f35b60526054565b005b60005460609060016065565b600055565b80820180821115608557634e487b7160e01b600052601160045260246000fd5b9291505056fea2646970667358221220f3ff85faaf69b757f75fa3339691ba41619377b25cf070d34a8857633fb746f364736f6c63430008140033","opcodes":"PUSH1 0x80 PUSH1 0x40 MSTORE PUSH1 0x0 DUP1 SSTORE CALLVALUE DUP1 ISZERO PUSH2 0x14 JUMPI PUSH1 0x0 DUP1 REVERT JUMPDEST POP PUSH1 0xC1 DUP1 PUSH2 0x23 PUSH1 0x0 CODECOPY PUSH1 0x0 RETURN INVALID PUSH1 0x80 PUSH1 0x40 MSTORE CALLVALUE DUP1 ISZERO PUSH1 0xF JUMPI PUSH1 0x0 DUP1 REVERT JUMPDEST POP PUSH1 0x4 CALLDATASIZE LT PUSH1 0x32 JUMPI PUSH1 0x0 CALLDATALOAD PUSH1 0xE0 SHR DUP1 PUSH4 0x2E64CEC1 EQ PUSH1 0x37 JUMPI DUP1 PUSH4 0xD09DE08A EQ PUSH1 0x4C JUMPI JUMPDEST PUSH1 0x0 DUP1 REVERT JUMPDEST PUSH1 0x0 SLOAD PUSH1 0x40 MLOAD SWAP1 DUP2 MSTORE PUSH1 0x20 ADD PUSH1 0x40 MLOAD DUP1 SWAP2 SUB SWAP1 RETURN JUMPDEST PUSH1 0x52 PUSH1 0x54 JUMP JUMPDEST STOP JUMPDEST PUSH1 0x0 SLOAD PUSH1 0x60 SWAP1 PUSH1 0x1 PUSH1 0x65 JUMP JUMPDEST PUSH1 0x0 SSTORE JUMP JUMPDEST DUP1 DUP3 ADD DUP1 DUP3 GT ISZERO PUSH1 0x85 JUMPI PUSH4 0x4E487B71 PUSH1 0xE0 SHL PUSH1 0x0 MSTORE PUSH1 0x11 PUSH1 0x4 MSTORE PUSH1 0x24 PUSH1 0x0 REVERT JUMPDEST SWAP3 SWAP2 POP POP JUMP INVALID LOG2 PUSH5 0x6970667358 0x22 SLT KECCAK256 RETURN SELFDESTRUCT DUP6 STATICCALL 0xAF PUSH10 0xB757F75FA3339691BA41 PUSH2 0x9377 0xB2 0x5C CREATE PUSH17 0xD34A8857633FB746F364736F6C63430008 EQ STOP CALLER "},"methodIdentifiers":{"increment()":"d09de08a","retrieve()":"2e64cec1"}}}}}