{
  "_format": "hh-sol-artifact-1",
  "contractName": "Faucet",
  "sourceName": "contracts/Faucet.sol",
  "abi": [
    {
      "inputs": [
        {
          "internalType": "contract IERC20",
          "name": "_peach",
          "type": "address"
        },
        {
          "internalType": "contract IERC20",
          "name": "_mango",
          "type": "address"
        }
      ],
      "stateMutability": "nonpayable",
      "type": "constructor"
    },
    {
      "inputs": [
        {
          "internalType": "address",
          "name": "owner",
          "type": "address"
        }
      ],
      "name": "OwnableInvalidOwner",
      "type": "error"
    },
    {
      "inputs": [
        {
          "internalType": "address",
          "name": "account",
          "type": "address"
        }
      ],
      "name": "OwnableUnauthorizedAccount",
      "type": "error"
    },
    {
      "anonymous": false,
      "inputs": [
        {
          "indexed": true,
          "internalType": "address",
          "name": "to",
          "type": "address"
        },
        {
          "indexed": false,
          "internalType": "uint256",
          "name": "amount",
          "type": "uint256"
        }
      ],
      "name": "MangoTokensRequested",
      "type": "event"
    },
    {
      "anonymous": false,
      "inputs": [
        {
          "indexed": true,
          "internalType": "address",
          "name": "previousOwner",
          "type": "address"
        },
        {
          "indexed": true,
          "internalType": "address",
          "name": "newOwner",
          "type": "address"
        }
      ],
      "name": "OwnershipTransferred",
      "type": "event"
    },
    {
      "anonymous": false,
      "inputs": [
        {
          "indexed": true,
          "internalType": "address",
          "name": "to",
          "type": "address"
        },
        {
          "indexed": false,
          "internalType": "uint256",
          "name": "amount",
          "type": "uint256"
        }
      ],
      "name": "PeachTokensRequested",
      "type": "event"
    },
    {
      "inputs": [],
      "name": "getMangoBalance",
      "outputs": [
        {
          "internalType": "uint256",
          "name": "",
          "type": "uint256"
        }
      ],
      "stateMutability": "view",
      "type": "function"
    },
    {
      "inputs": [],
      "name": "getPeachBalance",
      "outputs": [
        {
          "internalType": "uint256",
          "name": "",
          "type": "uint256"
        }
      ],
      "stateMutability": "view",
      "type": "function"
    },
    {
      "inputs": [],
      "name": "mango",
      "outputs": [
        {
          "internalType": "contract IERC20",
          "name": "",
          "type": "address"
        }
      ],
      "stateMutability": "view",
      "type": "function"
    },
    {
      "inputs": [],
      "name": "owner",
      "outputs": [
        {
          "internalType": "address",
          "name": "",
          "type": "address"
        }
      ],
      "stateMutability": "view",
      "type": "function"
    },
    {
      "inputs": [],
      "name": "peach",
      "outputs": [
        {
          "internalType": "contract IERC20",
          "name": "",
          "type": "address"
        }
      ],
      "stateMutability": "view",
      "type": "function"
    },
    {
      "inputs": [],
      "name": "renounceOwnership",
      "outputs": [],
      "stateMutability": "nonpayable",
      "type": "function"
    },
    {
      "inputs": [
        {
          "internalType": "address",
          "name": "to",
          "type": "address"
        },
        {
          "internalType": "uint256",
          "name": "amount",
          "type": "uint256"
        }
      ],
      "name": "requestMangoTokens",
      "outputs": [],
      "stateMutability": "nonpayable",
      "type": "function"
    },
    {
      "inputs": [
        {
          "internalType": "address",
          "name": "to",
          "type": "address"
        },
        {
          "internalType": "uint256",
          "name": "amount",
          "type": "uint256"
        }
      ],
      "name": "requestPeachTokens",
      "outputs": [],
      "stateMutability": "nonpayable",
      "type": "function"
    },
    {
      "inputs": [
        {
          "internalType": "address",
          "name": "newOwner",
          "type": "address"
        }
      ],
      "name": "transferOwnership",
      "outputs": [],
      "stateMutability": "nonpayable",
      "type": "function"
    }
  ],
  "bytecode": "0x608060405234801561001057600080fd5b506040516107f73803806107f783398101604081905261002f916100fc565b338061005557604051631e4fbdf760e01b81526000600482015260240160405180910390fd5b61005e81610090565b50600180546001600160a01b039384166001600160a01b0319918216179091556002805492909316911617905561012f565b600080546001600160a01b038381166001600160a01b0319831681178455604051919092169283917f8be0079c531659141344cd1fd0a4f28419497f9722a3daafe3b4186f6b6457e09190a35050565b80516001600160a01b03811681146100f757600080fd5b919050565b6000806040838503121561010f57600080fd5b610118836100e0565b9150610126602084016100e0565b90509250929050565b6106b98061013e6000396000f3fe608060405234801561001057600080fd5b50600436106100925760003560e01c8063715018a611610066578063715018a6146101055780638da5cb5b1461010d578063acf354531461011e578063e7c7477a14610126578063f2fde38b1461013957600080fd5b80627df2cd146100975780632d303f17146100ac57806346218d4c146100bf5780635b737da2146100da575b600080fd5b6100aa6100a53660046105fc565b61014c565b005b6100aa6100ba3660046105fc565b6102e5565b6100c761046d565b6040519081526020015b60405180910390f35b6001546100ed906001600160a01b031681565b6040516001600160a01b0390911681526020016100d1565b6100aa6104e0565b6000546001600160a01b03166100ed565b6100c76104f4565b6002546100ed906001600160a01b031681565b6100aa610147366004610626565b610525565b610154610563565b6001546040516370a0823160e01b815230600482015282916001600160a01b0316906370a0823190602401602060405180830381865afa15801561019c573d6000803e3d6000fd5b505050506040513d601f19601f820116820180604052508101906101c09190610648565b10156102265760405162461bcd60e51b815260206004820152602a60248201527f496e73756666696369656e7420506561636820746f6b656e2062616c616e6365604482015269081a5b8819985d58d95d60b21b60648201526084015b60405180910390fd5b60015460405163a9059cbb60e01b81526001600160a01b038481166004830152602482018490529091169063a9059cbb906044016020604051808303816000875af1158015610279573d6000803e3d6000fd5b505050506040513d601f19601f8201168201806040525081019061029d9190610661565b50816001600160a01b03167f0fbd7ca7c228834abde89e29fba035931c4f5e544f6f86c35a3ab800b62b8248826040516102d991815260200190565b60405180910390a25050565b6102ed610563565b6002546040516370a0823160e01b815230600482015282916001600160a01b0316906370a0823190602401602060405180830381865afa158015610335573d6000803e3d6000fd5b505050506040513d601f19601f820116820180604052508101906103599190610648565b10156103ba5760405162461bcd60e51b815260206004820152602a60248201527f496e73756666696369656e74204d616e676f20746f6b656e2062616c616e6365604482015269081a5b8819985d58d95d60b21b606482015260840161021d565b60025460405163a9059cbb60e01b81526001600160a01b038481166004830152602482018490529091169063a9059cbb906044016020604051808303816000875af115801561040d573d6000803e3d6000fd5b505050506040513d601f19601f820116820180604052508101906104319190610661565b50816001600160a01b03167f5949b3daa063b688dc848c39c316bb7bc66a318f76d3948f9ca8244aad7451a1826040516102d991815260200190565b6001546040516370a0823160e01b81523060048201526000916001600160a01b0316906370a08231906024015b602060405180830381865afa1580156104b7573d6000803e3d6000fd5b505050506040513d601f19601f820116820180604052508101906104db9190610648565b905090565b6104e8610563565b6104f26000610590565b565b6002546040516370a0823160e01b81523060048201526000916001600160a01b0316906370a082319060240161049a565b61052d610563565b6001600160a01b03811661055757604051631e4fbdf760e01b81526000600482015260240161021d565b61056081610590565b50565b6000546001600160a01b031633146104f25760405163118cdaa760e01b815233600482015260240161021d565b600080546001600160a01b038381166001600160a01b0319831681178455604051919092169283917f8be0079c531659141344cd1fd0a4f28419497f9722a3daafe3b4186f6b6457e09190a35050565b80356001600160a01b03811681146105f757600080fd5b919050565b6000806040838503121561060f57600080fd5b610618836105e0565b946020939093013593505050565b60006020828403121561063857600080fd5b610641826105e0565b9392505050565b60006020828403121561065a57600080fd5b5051919050565b60006020828403121561067357600080fd5b8151801515811461064157600080fdfea26469706673582212202926de789117e2bea2cc9657ebb6d9e343bf368bfb3898f215c905f295b6fa8b64736f6c63430008140033",
  "linkReferences": {},
  "deployedLinkReferences": {}
}