{
  "_format": "hh-sol-artifact-1",
  "contractName": "Faucet",
  "sourceName": "contracts/Faucet.sol",
  "abi": [
    {
      "inputs": [
        {
          "internalType": "contract IERC20",
          "name": "_peach",
          "type": "address"
        },
        {
          "internalType": "contract IERC20",
          "name": "_mango",
          "type": "address"
        }
      ],
      "stateMutability": "nonpayable",
      "type": "constructor"
    },
    {
      "inputs": [
        {
          "internalType": "address",
          "name": "owner",
          "type": "address"
        }
      ],
      "name": "OwnableInvalidOwner",
      "type": "error"
    },
    {
      "inputs": [
        {
          "internalType": "address",
          "name": "account",
          "type": "address"
        }
      ],
      "name": "OwnableUnauthorizedAccount",
      "type": "error"
    },
    {
      "anonymous": false,
      "inputs": [
        {
          "indexed": true,
          "internalType": "address",
          "name": "previousOwner",
          "type": "address"
        },
        {
          "indexed": true,
          "internalType": "address",
          "name": "newOwner",
          "type": "address"
        }
      ],
      "name": "OwnershipTransferred",
      "type": "event"
    },
    {
      "inputs": [],
      "name": "getMangoBalance",
      "outputs": [
        {
          "internalType": "uint256",
          "name": "",
          "type": "uint256"
        }
      ],
      "stateMutability": "view",
      "type": "function"
    },
    {
      "inputs": [],
      "name": "getPeachBalance",
      "outputs": [
        {
          "internalType": "uint256",
          "name": "",
          "type": "uint256"
        }
      ],
      "stateMutability": "view",
      "type": "function"
    },
    {
      "inputs": [],
      "name": "mango",
      "outputs": [
        {
          "internalType": "contract IERC20",
          "name": "",
          "type": "address"
        }
      ],
      "stateMutability": "view",
      "type": "function"
    },
    {
      "inputs": [],
      "name": "owner",
      "outputs": [
        {
          "internalType": "address",
          "name": "",
          "type": "address"
        }
      ],
      "stateMutability": "view",
      "type": "function"
    },
    {
      "inputs": [],
      "name": "peach",
      "outputs": [
        {
          "internalType": "contract IERC20",
          "name": "",
          "type": "address"
        }
      ],
      "stateMutability": "view",
      "type": "function"
    },
    {
      "inputs": [],
      "name": "renounceOwnership",
      "outputs": [],
      "stateMutability": "nonpayable",
      "type": "function"
    },
    {
      "inputs": [
        {
          "internalType": "address",
          "name": "to",
          "type": "address"
        },
        {
          "internalType": "uint256",
          "name": "amount",
          "type": "uint256"
        }
      ],
      "name": "requestMangoTokens",
      "outputs": [],
      "stateMutability": "nonpayable",
      "type": "function"
    },
    {
      "inputs": [
        {
          "internalType": "address",
          "name": "to",
          "type": "address"
        },
        {
          "internalType": "uint256",
          "name": "amount",
          "type": "uint256"
        }
      ],
      "name": "requestPeachTokens",
      "outputs": [],
      "stateMutability": "nonpayable",
      "type": "function"
    },
    {
      "inputs": [
        {
          "internalType": "address",
          "name": "newOwner",
          "type": "address"
        }
      ],
      "name": "transferOwnership",
      "outputs": [],
      "stateMutability": "nonpayable",
      "type": "function"
    }
  ],
  "bytecode": "0x608060405234801561001057600080fd5b5060405161073b38038061073b83398101604081905261002f916100fc565b338061005557604051631e4fbdf760e01b81526000600482015260240160405180910390fd5b61005e81610090565b50600180546001600160a01b039384166001600160a01b0319918216179091556002805492909316911617905561012f565b600080546001600160a01b038381166001600160a01b0319831681178455604051919092169283917f8be0079c531659141344cd1fd0a4f28419497f9722a3daafe3b4186f6b6457e09190a35050565b80516001600160a01b03811681146100f757600080fd5b919050565b6000806040838503121561010f57600080fd5b610118836100e0565b9150610126602084016100e0565b90509250929050565b6105fd8061013e6000396000f3fe608060405234801561001057600080fd5b50600436106100925760003560e01c8063715018a611610066578063715018a6146101055780638da5cb5b1461010d578063acf354531461011e578063e7c7477a14610126578063f2fde38b1461013957600080fd5b80627df2cd146100975780632d303f17146100ac57806346218d4c146100bf5780635b737da2146100da575b600080fd5b6100aa6100a5366004610540565b61014c565b005b6100aa6100ba366004610540565b6102a3565b6100c76103b1565b6040519081526020015b60405180910390f35b6001546100ed906001600160a01b031681565b6040516001600160a01b0390911681526020016100d1565b6100aa610424565b6000546001600160a01b03166100ed565b6100c7610438565b6002546100ed906001600160a01b031681565b6100aa61014736600461056a565b610469565b6101546104a7565b6001546040516370a0823160e01b815230600482015282916001600160a01b0316906370a0823190602401602060405180830381865afa15801561019c573d6000803e3d6000fd5b505050506040513d601f19601f820116820180604052508101906101c0919061058c565b10156102265760405162461bcd60e51b815260206004820152602a60248201527f496e73756666696369656e7420506561636820746f6b656e2062616c616e6365604482015269081a5b8819985d58d95d60b21b60648201526084015b60405180910390fd5b60015460405163a9059cbb60e01b81526001600160a01b038481166004830152602482018490529091169063a9059cbb906044015b6020604051808303816000875af115801561027a573d6000803e3d6000fd5b505050506040513d601f19601f8201168201806040525081019061029e91906105a5565b505050565b6102ab6104a7565b6002546040516370a0823160e01b815230600482015282916001600160a01b0316906370a0823190602401602060405180830381865afa1580156102f3573d6000803e3d6000fd5b505050506040513d601f19601f82011682018060405250810190610317919061058c565b10156103785760405162461bcd60e51b815260206004820152602a60248201527f496e73756666696369656e74204d616e676f20746f6b656e2062616c616e6365604482015269081a5b8819985d58d95d60b21b606482015260840161021d565b60025460405163a9059cbb60e01b81526001600160a01b038481166004830152602482018490529091169063a9059cbb9060440161025b565b6001546040516370a0823160e01b81523060048201526000916001600160a01b0316906370a08231906024015b602060405180830381865afa1580156103fb573d6000803e3d6000fd5b505050506040513d601f19601f8201168201806040525081019061041f919061058c565b905090565b61042c6104a7565b61043660006104d4565b565b6002546040516370a0823160e01b81523060048201526000916001600160a01b0316906370a08231906024016103de565b6104716104a7565b6001600160a01b03811661049b57604051631e4fbdf760e01b81526000600482015260240161021d565b6104a4816104d4565b50565b6000546001600160a01b031633146104365760405163118cdaa760e01b815233600482015260240161021d565b600080546001600160a01b038381166001600160a01b0319831681178455604051919092169283917f8be0079c531659141344cd1fd0a4f28419497f9722a3daafe3b4186f6b6457e09190a35050565b80356001600160a01b038116811461053b57600080fd5b919050565b6000806040838503121561055357600080fd5b61055c83610524565b946020939093013593505050565b60006020828403121561057c57600080fd5b61058582610524565b9392505050565b60006020828403121561059e57600080fd5b5051919050565b6000602082840312156105b757600080fd5b8151801515811461058557600080fdfea2646970667358221220f890a6a59cd3adc73b13b9efb3f38297177c18f80bf41e0885c5027cfb143e4c64736f6c63430008140033",
  "linkReferences": {},
  "deployedLinkReferences": {}
}